{
  "_format": "hh3-artifact-1",
  "contractName": "SupplyChainEscrow",
  "sourceName": "contracts/SupplyChainEscrow.sol",
  "abi": [
    {
      "anonymous": false,
      "inputs": [
        {
          "indexed": true,
          "internalType": "uint256",
          "name": "id",
          "type": "uint256"
        },
        {
          "indexed": false,
          "internalType": "address",
          "name": "seller",
          "type": "address"
        },
        {
          "indexed": false,
          "internalType": "uint256",
          "name": "amount",
          "type": "uint256"
        }
      ],
      "name": "FundsReleased",
      "type": "event"
    },
    {
      "anonymous": false,
      "inputs": [
        {
          "indexed": true,
          "internalType": "uint256",
          "name": "id",
          "type": "uint256"
        },
        {
          "indexed": true,
          "internalType": "address",
          "name": "buyer",
          "type": "address"
        },
        {
          "indexed": true,
          "internalType": "address",
          "name": "seller",
          "type": "address"
        },
        {
          "indexed": false,
          "internalType": "uint256",
          "name": "amount",
          "type": "uint256"
        }
      ],
      "name": "ShipmentCreated",
      "type": "event"
    },
    {
      "anonymous": false,
      "inputs": [
        {
          "indexed": true,
          "internalType": "uint256",
          "name": "id",
          "type": "uint256"
        },
        {
          "indexed": false,
          "internalType": "enum SupplyChainEscrow.Status",
          "name": "status",
          "type": "uint8"
        }
      ],
      "name": "StatusUpdated",
      "type": "event"
    },
    {
      "inputs": [
        {
          "internalType": "address",
          "name": "seller",
          "type": "address"
        }
      ],
      "name": "createShipment",
      "outputs": [],
      "stateMutability": "payable",
      "type": "function"
    },
    {
      "inputs": [],
      "name": "getAllShipments",
      "outputs": [
        {
          "components": [
            {
              "internalType": "uint256",
              "name": "id",
              "type": "uint256"
            },
            {
              "internalType": "address",
              "name": "buyer",
              "type": "address"
            },
            {
              "internalType": "address",
              "name": "seller",
              "type": "address"
            },
            {
              "internalType": "uint256",
              "name": "amount",
              "type": "uint256"
            },
            {
              "internalType": "enum SupplyChainEscrow.Status",
              "name": "status",
              "type": "uint8"
            },
            {
              "internalType": "uint256",
              "name": "createdAt",
              "type": "uint256"
            }
          ],
          "internalType": "struct SupplyChainEscrow.Shipment[]",
          "name": "",
          "type": "tuple[]"
        }
      ],
      "stateMutability": "view",
      "type": "function"
    },
    {
      "inputs": [
        {
          "internalType": "uint256",
          "name": "shipmentId",
          "type": "uint256"
        }
      ],
      "name": "getShipment",
      "outputs": [
        {
          "components": [
            {
              "internalType": "uint256",
              "name": "id",
              "type": "uint256"
            },
            {
              "internalType": "address",
              "name": "buyer",
              "type": "address"
            },
            {
              "internalType": "address",
              "name": "seller",
              "type": "address"
            },
            {
              "internalType": "uint256",
              "name": "amount",
              "type": "uint256"
            },
            {
              "internalType": "enum SupplyChainEscrow.Status",
              "name": "status",
              "type": "uint8"
            },
            {
              "internalType": "uint256",
              "name": "createdAt",
              "type": "uint256"
            }
          ],
          "internalType": "struct SupplyChainEscrow.Shipment",
          "name": "",
          "type": "tuple"
        }
      ],
      "stateMutability": "view",
      "type": "function"
    },
    {
      "inputs": [
        {
          "internalType": "address",
          "name": "user",
          "type": "address"
        }
      ],
      "name": "getUserShipments",
      "outputs": [
        {
          "internalType": "uint256[]",
          "name": "",
          "type": "uint256[]"
        }
      ],
      "stateMutability": "view",
      "type": "function"
    },
    {
      "inputs": [],
      "name": "shipmentCount",
      "outputs": [
        {
          "internalType": "uint256",
          "name": "",
          "type": "uint256"
        }
      ],
      "stateMutability": "view",
      "type": "function"
    },
    {
      "inputs": [
        {
          "internalType": "uint256",
          "name": "",
          "type": "uint256"
        }
      ],
      "name": "shipments",
      "outputs": [
        {
          "internalType": "uint256",
          "name": "id",
          "type": "uint256"
        },
        {
          "internalType": "address",
          "name": "buyer",
          "type": "address"
        },
        {
          "internalType": "address",
          "name": "seller",
          "type": "address"
        },
        {
          "internalType": "uint256",
          "name": "amount",
          "type": "uint256"
        },
        {
          "internalType": "enum SupplyChainEscrow.Status",
          "name": "status",
          "type": "uint8"
        },
        {
          "internalType": "uint256",
          "name": "createdAt",
          "type": "uint256"
        }
      ],
      "stateMutability": "view",
      "type": "function"
    },
    {
      "inputs": [
        {
          "internalType": "uint256",
          "name": "shipmentId",
          "type": "uint256"
        },
        {
          "internalType": "enum SupplyChainEscrow.Status",
          "name": "newStatus",
          "type": "uint8"
        }
      ],
      "name": "updateStatus",
      "outputs": [],
      "stateMutability": "nonpayable",
      "type": "function"
    }
  ],
  "bytecode": "0x6080604052348015600e575f5ffd5b50610bae8061001c5f395ff3fe60806040526004361061006e575f3560e01c8063494dad6c1161004c578063494dad6c146101395780639490c9ef1461015a578063aace20b714610186578063e532f5c3146101a8575f5ffd5b8063092b3740146100725780632ac08a93146100a75780633a1b3d3114610118575b5f5ffd5b34801561007d575f5ffd5b5061009161008c36600461091c565b6101bb565b60405161009e91906109b7565b60405180910390f35b3480156100b2575f5ffd5b506101066100c136600461091c565b600160208190525f91825260409091208054918101546002820154600383015460048401546005909401546001600160a01b03938416949290931692909160ff169086565b60405161009e969594939291906109cb565b348015610123575f5ffd5b50610137610132366004610a0e565b610281565b005b348015610144575f5ffd5b5061014d61044c565b60405161009e9190610a3f565b348015610165575f5ffd5b50610179610174366004610a8c565b6105a4565b60405161009e9190610ab9565b348015610191575f5ffd5b5061019a5f5481565b60405190815260200161009e565b6101376101b6366004610a8c565b61060d565b6040805160c0810182525f80825260208201819052918101829052606081018290526080810182905260a08101919091525f82815260016020818152604092839020835160c08101855281548152928101546001600160a01b039081169284019290925260028082015490921693830193909352600383015460608301526004830154919291608084019160ff9091169081111561025b5761025b610933565b600281111561026c5761026c610933565b81526020016005820154815250509050919050565b5f828152600160205260408120908390036102d95760405162461bcd60e51b8152602060048201526013602482015272536869706d656e74206e6f7420666f756e642160681b60448201526064015b60405180910390fd5b60028101546001600160a01b031633146103445760405162461bcd60e51b815260206004820152602660248201527f4f6e6c792073656c6c65722063616e2075706461746520736869706d656e742060448201526573746174757360d01b60648201526084016102d0565b600481015460ff16600281111561035d5761035d610933565b610368906001610b04565b82600281111561037a5761037a610933565b146103c75760405162461bcd60e51b815260206004820152601960248201527f496e76616c696420737461747573207472616e736974696f6e0000000000000060448201526064016102d0565b60048101805483919060ff191660018360028111156103e8576103e8610933565b0217905550827f2da7b23ca63c1eb969eee5fae4acb98186abecf5358b0354a82a5183ebca6b2a8360405161041d9190610b17565b60405180910390a2600282600281111561043957610439610933565b036104475761044783610817565b505050565b60605f5f5467ffffffffffffffff81111561046957610469610b25565b6040519080825280602002602001820160405280156104c757816020015b6040805160c0810182525f8082526020808301829052928201819052606082018190526080820181905260a082015282525f199092019101816104875790505b50905060015b5f54811161059e575f81815260016020818152604092839020835160c08101855281548152928101546001600160a01b039081169284019290925260028082015490921693830193909352600383015460608301526004830154919291608084019160ff9091169081111561054457610544610933565b600281111561055557610555610933565b81526005919091015460209091015282610570600184610b39565b8151811061058057610580610b4c565b6020026020010181905250808061059690610b60565b9150506104cd565b50919050565b6001600160a01b0381165f9081526002602090815260409182902080548351818402810184019094528084526060939283018282801561060157602002820191905f5260205f20905b8154815260200190600101908083116105ed575b50505050509050919050565b5f34116106555760405162461bcd60e51b8152602060048201526016602482015275115cd8dc9bddc8185b5bdd5b9d081c995c5d5a5c995960521b60448201526064016102d0565b6001600160a01b03811661069d5760405162461bcd60e51b815260206004820152600f60248201526e496e76616c69642073656c6c65722160881b60448201526064016102d0565b5f805490806106ab83610b60565b91905055506040518060c001604052805f548152602001336001600160a01b03168152602001826001600160a01b031681526020013481526020015f60028111156106f8576106f8610933565b8152426020918201525f805481526001808352604091829020845181559284015183820180546001600160a01b039283166001600160a01b031991821617909155928501516002808601805492909316919094161790556060840151600384015560808401516004840180549193909260ff199092169190849081111561078157610781610933565b021790555060a09190910151600590910155335f818152600260209081526040808320835481546001808201845592865284862001556001600160a01b038616808552828520855481549384018255908652848620909201919091559254905134815292939290917f7af99d65cb596cfdfc2aba99e0a28ed52bf550fd06066ef28d334007d9e8e223910160405180910390a450565b5f8181526001602052604080822060038101805490849055600282015492519193909290916001600160a01b039091169083908381818185875af1925050503d805f8114610880576040519150601f19603f3d011682016040523d82523d5f602084013e610885565b606091505b50509050806108cc5760405162461bcd60e51b8152602060048201526013602482015272115512081d1c985b9cd9995c8819985a5b1959606a1b60448201526064016102d0565b6002830154604080516001600160a01b0390921682526020820184905285917f6e3c6096795c8298a218b2cfb8bde42726ff7c9a3d27b4d3ba41ab7f74feb5fb910160405180910390a250505050565b5f6020828403121561092c575f5ffd5b5035919050565b634e487b7160e01b5f52602160045260245ffd5b6003811061096357634e487b7160e01b5f52602160045260245ffd5b9052565b8051825260018060a01b03602082015116602083015260018060a01b0360408201511660408301526060810151606083015260808101516109ab6080840182610947565b5060a090810151910152565b60c081016109c58284610967565b92915050565b8681526001600160a01b038681166020830152851660408201526060810184905260c081016109fd6080830185610947565b8260a0830152979650505050505050565b5f5f60408385031215610a1f575f5ffd5b82359150602083013560038110610a34575f5ffd5b809150509250929050565b602080825282518282018190525f918401906040840190835b81811015610a8157610a6b838551610967565b6020939093019260c09290920191600101610a58565b509095945050505050565b5f60208284031215610a9c575f5ffd5b81356001600160a01b0381168114610ab2575f5ffd5b9392505050565b602080825282518282018190525f918401906040840190835b81811015610a81578351835260209384019390920191600101610ad2565b634e487b7160e01b5f52601160045260245ffd5b808201808211156109c5576109c5610af0565b602081016109c58284610947565b634e487b7160e01b5f52604160045260245ffd5b818103818111156109c5576109c5610af0565b634e487b7160e01b5f52603260045260245ffd5b5f60018201610b7157610b71610af0565b506001019056fea2646970667358221220e6ab1ea287a9ab4ef9578a348a341b6dd76b2d4608a0672f8abc03f077255d4764736f6c634300081c0033",
  "linkReferences": {},
  "deployedLinkReferences": {},
  "immutableReferences": {},
  "inputSourceName": "project/contracts/SupplyChainEscrow.sol",
  "buildInfoId": "solc-0_8_28-5ebbb6837927c8f2477656e5b1ee395993235beb"
}